{
	"data": {
		"bytecode": {
			"linkReferences": {},
			"object": "6080604052348015600e575f80fd5b50335f806101000a81548173ffffffffffffffffffffffffffffffffffffffff021916908373ffffffffffffffffffffffffffffffffffffffff1602179055506105fd8061005b5f395ff3fe608060405234801561000f575f80fd5b5060043610610055575f3560e01c8063075461721461005957806327e235e3146100775780633bcb2e66146100a757806340c10f19146100c3578063e3d670d7146100df575b5f80fd5b61006161010f565b60405161006e91906103af565b60405180910390f35b610091600480360381019061008c91906103f6565b610132565b60405161009e9190610439565b60405180910390f35b6100c160048036038101906100bc919061047c565b610178565b005b6100dd60048036038101906100d8919061047c565b61028a565b005b6100f960048036038101906100f491906103f6565b61035b565b6040516101069190610439565b60405180910390f35b5f8054906101000a900473ffffffffffffffffffffffffffffffffffffffff1681565b5f60015f8373ffffffffffffffffffffffffffffffffffffffff1673ffffffffffffffffffffffffffffffffffffffff1681526020019081526020015f20549050919050565b60015f3373ffffffffffffffffffffffffffffffffffffffff1673ffffffffffffffffffffffffffffffffffffffff1681526020019081526020015f20548111156101f8576040517f08c379a00000000000000000000000000000000000000000000000000000000081526004016101ef90610514565b60405180910390fd5b8060015f8473ffffffffffffffffffffffffffffffffffffffff1673ffffffffffffffffffffffffffffffffffffffff1681526020019081526020015f205f828254610244919061055f565b925050819055507f0779afe64dae4fc3b6330d827d7dd4d4e251a70908c335b3649bd032c89f45fa33838360405161027e93929190610592565b60405180910390a15050565b5f8054906101000a900473ffffffffffffffffffffffffffffffffffffffff1673ffffffffffffffffffffffffffffffffffffffff163373ffffffffffffffffffffffffffffffffffffffff16146102e0575f80fd5b789f4f2726179a224501d762422c946590d910000000000000008110610304575f80fd5b8060015f8473ffffffffffffffffffffffffffffffffffffffff1673ffffffffffffffffffffffffffffffffffffffff1681526020019081526020015f205f828254610350919061055f565b925050819055505050565b6001602052805f5260405f205f915090505481565b5f73ffffffffffffffffffffffffffffffffffffffff82169050919050565b5f61039982610370565b9050919050565b6103a98161038f565b82525050565b5f6020820190506103c25f8301846103a0565b92915050565b5f80fd5b6103d58161038f565b81146103df575f80fd5b50565b5f813590506103f0816103cc565b92915050565b5f6020828403121561040b5761040a6103c8565b5b5f610418848285016103e2565b91505092915050565b5f819050919050565b61043381610421565b82525050565b5f60208201905061044c5f83018461042a565b92915050565b61045b81610421565b8114610465575f80fd5b50565b5f8135905061047681610452565b92915050565b5f8060408385031215610492576104916103c8565b5b5f61049f858286016103e2565b92505060206104b085828601610468565b9150509250929050565b5f82825260208201905092915050565b7f496e73756666696369656e742062616c616e63650000000000000000000000005f82015250565b5f6104fe6014836104ba565b9150610509826104ca565b602082019050919050565b5f6020820190508181035f83015261052b816104f2565b9050919050565b7f4e487b71000000000000000000000000000000000000000000000000000000005f52601160045260245ffd5b5f61056982610421565b915061057483610421565b925082820190508082111561058c5761058b610532565b5b92915050565b5f6060820190506105a55f8301866103a0565b6105b260208301856103a0565b6105bf604083018461042a565b94935050505056fea264697066735822122075b17ec2ae40d801c4e99543a183f8bd2744977868eb3efe42df3742aa42377964736f6c634300081a0033",
			"opcodes": "PUSH1 0x80 PUSH1 0x40 MSTORE CALLVALUE DUP1 ISZERO PUSH1 0xE JUMPI PUSH0 DUP1 REVERT JUMPDEST POP CALLER PUSH0 DUP1 PUSH2 0x100 EXP DUP2 SLOAD DUP2 PUSH20 0xFFFFFFFFFFFFFFFFFFFFFFFFFFFFFFFFFFFFFFFF MUL NOT AND SWAP1 DUP4 PUSH20 0xFFFFFFFFFFFFFFFFFFFFFFFFFFFFFFFFFFFFFFFF AND MUL OR SWAP1 SSTORE POP PUSH2 0x5FD DUP1 PUSH2 0x5B PUSH0 CODECOPY PUSH0 RETURN INVALID PUSH1 0x80 PUSH1 0x40 MSTORE CALLVALUE DUP1 ISZERO PUSH2 0xF JUMPI PUSH0 DUP1 REVERT JUMPDEST POP PUSH1 0x4 CALLDATASIZE LT PUSH2 0x55 JUMPI PUSH0 CALLDATALOAD PUSH1 0xE0 SHR DUP1 PUSH4 0x7546172 EQ PUSH2 0x59 JUMPI DUP1 PUSH4 0x27E235E3 EQ PUSH2 0x77 JUMPI DUP1 PUSH4 0x3BCB2E66 EQ PUSH2 0xA7 JUMPI DUP1 PUSH4 0x40C10F19 EQ PUSH2 0xC3 JUMPI DUP1 PUSH4 0xE3D670D7 EQ PUSH2 0xDF JUMPI JUMPDEST PUSH0 DUP1 REVERT JUMPDEST PUSH2 0x61 PUSH2 0x10F JUMP JUMPDEST PUSH1 0x40 MLOAD PUSH2 0x6E SWAP2 SWAP1 PUSH2 0x3AF JUMP JUMPDEST PUSH1 0x40 MLOAD DUP1 SWAP2 SUB SWAP1 RETURN JUMPDEST PUSH2 0x91 PUSH1 0x4 DUP1 CALLDATASIZE SUB DUP2 ADD SWAP1 PUSH2 0x8C SWAP2 SWAP1 PUSH2 0x3F6 JUMP JUMPDEST PUSH2 0x132 JUMP JUMPDEST PUSH1 0x40 MLOAD PUSH2 0x9E SWAP2 SWAP1 PUSH2 0x439 JUMP JUMPDEST PUSH1 0x40 MLOAD DUP1 SWAP2 SUB SWAP1 RETURN JUMPDEST PUSH2 0xC1 PUSH1 0x4 DUP1 CALLDATASIZE SUB DUP2 ADD SWAP1 PUSH2 0xBC SWAP2 SWAP1 PUSH2 0x47C JUMP JUMPDEST PUSH2 0x178 JUMP JUMPDEST STOP JUMPDEST PUSH2 0xDD PUSH1 0x4 DUP1 CALLDATASIZE SUB DUP2 ADD SWAP1 PUSH2 0xD8 SWAP2 SWAP1 PUSH2 0x47C JUMP JUMPDEST PUSH2 0x28A JUMP JUMPDEST STOP JUMPDEST PUSH2 0xF9 PUSH1 0x4 DUP1 CALLDATASIZE SUB DUP2 ADD SWAP1 PUSH2 0xF4 SWAP2 SWAP1 PUSH2 0x3F6 JUMP JUMPDEST PUSH2 0x35B JUMP JUMPDEST PUSH1 0x40 MLOAD PUSH2 0x106 SWAP2 SWAP1 PUSH2 0x439 JUMP JUMPDEST PUSH1 0x40 MLOAD DUP1 SWAP2 SUB SWAP1 RETURN JUMPDEST PUSH0 DUP1 SLOAD SWAP1 PUSH2 0x100 EXP SWAP1 DIV PUSH20 0xFFFFFFFFFFFFFFFFFFFFFFFFFFFFFFFFFFFFFFFF AND DUP2 JUMP JUMPDEST PUSH0 PUSH1 0x1 PUSH0 DUP4 PUSH20 0xFFFFFFFFFFFFFFFFFFFFFFFFFFFFFFFFFFFFFFFF AND PUSH20 0xFFFFFFFFFFFFFFFFFFFFFFFFFFFFFFFFFFFFFFFF AND DUP2 MSTORE PUSH1 0x20 ADD SWAP1 DUP2 MSTORE PUSH1 0x20 ADD PUSH0 KECCAK256 SLOAD SWAP1 POP SWAP2 SWAP1 POP JUMP JUMPDEST PUSH1 0x1 PUSH0 CALLER PUSH20 0xFFFFFFFFFFFFFFFFFFFFFFFFFFFFFFFFFFFFFFFF AND PUSH20 0xFFFFFFFFFFFFFFFFFFFFFFFFFFFFFFFFFFFFFFFF AND DUP2 MSTORE PUSH1 0x20 ADD SWAP1 DUP2 MSTORE PUSH1 0x20 ADD PUSH0 KECCAK256 SLOAD DUP2 GT ISZERO PUSH2 0x1F8 JUMPI PUSH1 0x40 MLOAD PUSH32 0x8C379A000000000000000000000000000000000000000000000000000000000 DUP2 MSTORE PUSH1 0x4 ADD PUSH2 0x1EF SWAP1 PUSH2 0x514 JUMP JUMPDEST PUSH1 0x40 MLOAD DUP1 SWAP2 SUB SWAP1 REVERT JUMPDEST DUP1 PUSH1 0x1 PUSH0 DUP5 PUSH20 0xFFFFFFFFFFFFFFFFFFFFFFFFFFFFFFFFFFFFFFFF AND PUSH20 0xFFFFFFFFFFFFFFFFFFFFFFFFFFFFFFFFFFFFFFFF AND DUP2 MSTORE PUSH1 0x20 ADD SWAP1 DUP2 MSTORE PUSH1 0x20 ADD PUSH0 KECCAK256 PUSH0 DUP3 DUP3 SLOAD PUSH2 0x244 SWAP2 SWAP1 PUSH2 0x55F JUMP JUMPDEST SWAP3 POP POP DUP2 SWAP1 SSTORE POP PUSH32 0x779AFE64DAE4FC3B6330D827D7DD4D4E251A70908C335B3649BD032C89F45FA CALLER DUP4 DUP4 PUSH1 0x40 MLOAD PUSH2 0x27E SWAP4 SWAP3 SWAP2 SWAP1 PUSH2 0x592 JUMP JUMPDEST PUSH1 0x40 MLOAD DUP1 SWAP2 SUB SWAP1 LOG1 POP POP JUMP JUMPDEST PUSH0 DUP1 SLOAD SWAP1 PUSH2 0x100 EXP SWAP1 DIV PUSH20 0xFFFFFFFFFFFFFFFFFFFFFFFFFFFFFFFFFFFFFFFF AND PUSH20 0xFFFFFFFFFFFFFFFFFFFFFFFFFFFFFFFFFFFFFFFF AND CALLER PUSH20 0xFFFFFFFFFFFFFFFFFFFFFFFFFFFFFFFFFFFFFFFF AND EQ PUSH2 0x2E0 JUMPI PUSH0 DUP1 REVERT JUMPDEST PUSH25 0x9F4F2726179A224501D762422C946590D91000000000000000 DUP2 LT PUSH2 0x304 JUMPI PUSH0 DUP1 REVERT JUMPDEST DUP1 PUSH1 0x1 PUSH0 DUP5 PUSH20 0xFFFFFFFFFFFFFFFFFFFFFFFFFFFFFFFFFFFFFFFF AND PUSH20 0xFFFFFFFFFFFFFFFFFFFFFFFFFFFFFFFFFFFFFFFF AND DUP2 MSTORE PUSH1 0x20 ADD SWAP1 DUP2 MSTORE PUSH1 0x20 ADD PUSH0 KECCAK256 PUSH0 DUP3 DUP3 SLOAD PUSH2 0x350 SWAP2 SWAP1 PUSH2 0x55F JUMP JUMPDEST SWAP3 POP POP DUP2 SWAP1 SSTORE POP POP POP JUMP JUMPDEST PUSH1 0x1 PUSH1 0x20 MSTORE DUP1 PUSH0 MSTORE PUSH1 0x40 PUSH0 KECCAK256 PUSH0 SWAP2 POP SWAP1 POP SLOAD DUP2 JUMP JUMPDEST PUSH0 PUSH20 0xFFFFFFFFFFFFFFFFFFFFFFFFFFFFFFFFFFFFFFFF DUP3 AND SWAP1 POP SWAP2 SWAP1 POP JUMP JUMPDEST PUSH0 PUSH2 0x399 DUP3 PUSH2 0x370 JUMP JUMPDEST SWAP1 POP SWAP2 SWAP1 POP JUMP JUMPDEST PUSH2 0x3A9 DUP2 PUSH2 0x38F JUMP JUMPDEST DUP3 MSTORE POP POP JUMP JUMPDEST PUSH0 PUSH1 0x20 DUP3 ADD SWAP1 POP PUSH2 0x3C2 PUSH0 DUP4 ADD DUP5 PUSH2 0x3A0 JUMP JUMPDEST SWAP3 SWAP2 POP POP JUMP JUMPDEST PUSH0 DUP1 REVERT JUMPDEST PUSH2 0x3D5 DUP2 PUSH2 0x38F JUMP JUMPDEST DUP2 EQ PUSH2 0x3DF JUMPI PUSH0 DUP1 REVERT JUMPDEST POP JUMP JUMPDEST PUSH0 DUP2 CALLDATALOAD SWAP1 POP PUSH2 0x3F0 DUP2 PUSH2 0x3CC JUMP JUMPDEST SWAP3 SWAP2 POP POP JUMP JUMPDEST PUSH0 PUSH1 0x20 DUP3 DUP5 SUB SLT ISZERO PUSH2 0x40B JUMPI PUSH2 0x40A PUSH2 0x3C8 JUMP JUMPDEST JUMPDEST PUSH0 PUSH2 0x418 DUP5 DUP3 DUP6 ADD PUSH2 0x3E2 JUMP JUMPDEST SWAP2 POP POP SWAP3 SWAP2 POP POP JUMP JUMPDEST PUSH0 DUP2 SWAP1 POP SWAP2 SWAP1 POP JUMP JUMPDEST PUSH2 0x433 DUP2 PUSH2 0x421 JUMP JUMPDEST DUP3 MSTORE POP POP JUMP JUMPDEST PUSH0 PUSH1 0x20 DUP3 ADD SWAP1 POP PUSH2 0x44C PUSH0 DUP4 ADD DUP5 PUSH2 0x42A JUMP JUMPDEST SWAP3 SWAP2 POP POP JUMP JUMPDEST PUSH2 0x45B DUP2 PUSH2 0x421 JUMP JUMPDEST DUP2 EQ PUSH2 0x465 JUMPI PUSH0 DUP1 REVERT JUMPDEST POP JUMP JUMPDEST PUSH0 DUP2 CALLDATALOAD SWAP1 POP PUSH2 0x476 DUP2 PUSH2 0x452 JUMP JUMPDEST SWAP3 SWAP2 POP POP JUMP JUMPDEST PUSH0 DUP1 PUSH1 0x40 DUP4 DUP6 SUB SLT ISZERO PUSH2 0x492 JUMPI PUSH2 0x491 PUSH2 0x3C8 JUMP JUMPDEST JUMPDEST PUSH0 PUSH2 0x49F DUP6 DUP3 DUP7 ADD PUSH2 0x3E2 JUMP JUMPDEST SWAP3 POP POP PUSH1 0x20 PUSH2 0x4B0 DUP6 DUP3 DUP7 ADD PUSH2 0x468 JUMP JUMPDEST SWAP2 POP POP SWAP3 POP SWAP3 SWAP1 POP JUMP JUMPDEST PUSH0 DUP3 DUP3 MSTORE PUSH1 0x20 DUP3 ADD SWAP1 POP SWAP3 SWAP2 POP POP JUMP JUMPDEST PUSH32 0x496E73756666696369656E742062616C616E6365000000000000000000000000 PUSH0 DUP3 ADD MSTORE POP JUMP JUMPDEST PUSH0 PUSH2 0x4FE PUSH1 0x14 DUP4 PUSH2 0x4BA JUMP JUMPDEST SWAP2 POP PUSH2 0x509 DUP3 PUSH2 0x4CA JUMP JUMPDEST PUSH1 0x20 DUP3 ADD SWAP1 POP SWAP2 SWAP1 POP JUMP JUMPDEST PUSH0 PUSH1 0x20 DUP3 ADD SWAP1 POP DUP2 DUP2 SUB PUSH0 DUP4 ADD MSTORE PUSH2 0x52B DUP2 PUSH2 0x4F2 JUMP JUMPDEST SWAP1 POP SWAP2 SWAP1 POP JUMP JUMPDEST PUSH32 0x4E487B7100000000000000000000000000000000000000000000000000000000 PUSH0 MSTORE PUSH1 0x11 PUSH1 0x4 MSTORE PUSH1 0x24 PUSH0 REVERT JUMPDEST PUSH0 PUSH2 0x569 DUP3 PUSH2 0x421 JUMP JUMPDEST SWAP2 POP PUSH2 0x574 DUP4 PUSH2 0x421 JUMP JUMPDEST SWAP3 POP DUP3 DUP3 ADD SWAP1 POP DUP1 DUP3 GT ISZERO PUSH2 0x58C JUMPI PUSH2 0x58B PUSH2 0x532 JUMP JUMPDEST JUMPDEST SWAP3 SWAP2 POP POP JUMP JUMPDEST PUSH0 PUSH1 0x60 DUP3 ADD SWAP1 POP PUSH2 0x5A5 PUSH0 DUP4 ADD DUP7 PUSH2 0x3A0 JUMP JUMPDEST PUSH2 0x5B2 PUSH1 0x20 DUP4 ADD DUP6 PUSH2 0x3A0 JUMP JUMPDEST PUSH2 0x5BF PUSH1 0x40 DUP4 ADD DUP5 PUSH2 0x42A JUMP JUMPDEST SWAP5 SWAP4 POP POP POP POP JUMP INVALID LOG2 PUSH5 0x6970667358 0x22 SLT KECCAK256 PUSH22 0xB17EC2AE40D801C4E99543A183F8BD2744977868EB3E INVALID TIMESTAMP 0xDF CALLDATACOPY TIMESTAMP 0xAA TIMESTAMP CALLDATACOPY PUSH26 0x64736F6C634300081A0033000000000000000000000000000000 "
		},
		"gasEstimates": {
			"creation": {
				"codeDepositCost": "306600",
				"executionCost": "24606",
				"totalCost": "331206"
			},
			"external": {
				"balance(address)": "2868",
				"balances(address)": "2829",
				"mint(address,uint256)": "infinite",
				"minter()": "2483",
				"sent(address,uint256)": "infinite"
			}
		},
		"methodIdentifiers": {
			"balance(address)": "e3d670d7",
			"balances(address)": "27e235e3",
			"mint(address,uint256)": "40c10f19",
			"minter()": "07546172",
			"sent(address,uint256)": "3bcb2e66"
		}
	},
	"abi": [
		{
			"inputs": [],
			"stateMutability": "nonpayable",
			"type": "constructor"
		},
		{
			"anonymous": false,
			"inputs": [
				{
					"indexed": false,
					"internalType": "address",
					"name": "from",
					"type": "address"
				},
				{
					"indexed": false,
					"internalType": "address",
					"name": "to",
					"type": "address"
				},
				{
					"indexed": false,
					"internalType": "uint256",
					"name": "amount",
					"type": "uint256"
				}
			],
			"name": "send",
			"type": "event"
		},
		{
			"inputs": [
				{
					"internalType": "address",
					"name": "",
					"type": "address"
				}
			],
			"name": "balance",
			"outputs": [
				{
					"internalType": "uint256",
					"name": "",
					"type": "uint256"
				}
			],
			"stateMutability": "view",
			"type": "function"
		},
		{
			"inputs": [
				{
					"internalType": "address",
					"name": "_account",
					"type": "address"
				}
			],
			"name": "balances",
			"outputs": [
				{
					"internalType": "uint256",
					"name": "",
					"type": "uint256"
				}
			],
			"stateMutability": "view",
			"type": "function"
		},
		{
			"inputs": [
				{
					"internalType": "address",
					"name": "receiver",
					"type": "address"
				},
				{
					"internalType": "uint256",
					"name": "amount",
					"type": "uint256"
				}
			],
			"name": "mint",
			"outputs": [],
			"stateMutability": "nonpayable",
			"type": "function"
		},
		{
			"inputs": [],
			"name": "minter",
			"outputs": [
				{
					"internalType": "address",
					"name": "",
					"type": "address"
				}
			],
			"stateMutability": "view",
			"type": "function"
		},
		{
			"inputs": [
				{
					"internalType": "address",
					"name": "receiver",
					"type": "address"
				},
				{
					"internalType": "uint256",
					"name": "amount",
					"type": "uint256"
				}
			],
			"name": "sent",
			"outputs": [],
			"stateMutability": "nonpayable",
			"type": "function"
		}
	]
}